{
    "_format": "hh-sol-artifact-1",
    "contractName": "TwitterContract",
    "sourceName": "contracts/twitterFactory.sol",
    "abi": [
        {
            "inputs": [
                {
                    "internalType": "string",
                    "name": "text",
                    "type": "string"
                }
            ],
            "name": "addTweet",
            "outputs": [],
            "stateMutability": "nonpayable",
            "type": "function"
        },
        {
            "inputs": [
                {
                    "internalType": "uint256",
                    "name": "tweetId",
                    "type": "uint256"
                },
                {
                    "internalType": "bool",
                    "name": "isDeleted",
                    "type": "bool"
                }
            ],
            "name": "deleteTweet",
            "outputs": [],
            "stateMutability": "nonpayable",
            "type": "function"
        },
        {
            "inputs": [],
            "name": "getAllTweets",
            "outputs": [
                {
                    "components": [
                        {
                            "internalType": "uint256",
                            "name": "id",
                            "type": "uint256"
                        },
                        {
                            "internalType": "address",
                            "name": "userName",
                            "type": "address"
                        },
                        {
                            "internalType": "bool",
                            "name": "isDeleted",
                            "type": "bool"
                        },
                        {
                            "internalType": "string",
                            "name": "text",
                            "type": "string"
                        }
                    ],
                    "internalType": "struct TwitterContract.Tweet[]",
                    "name": "",
                    "type": "tuple[]"
                }
            ],
            "stateMutability": "view",
            "type": "function"
        },
        {
            "inputs": [],
            "name": "getMyTweets",
            "outputs": [
                {
                    "components": [
                        {
                            "internalType": "uint256",
                            "name": "id",
                            "type": "uint256"
                        },
                        {
                            "internalType": "address",
                            "name": "userName",
                            "type": "address"
                        },
                        {
                            "internalType": "bool",
                            "name": "isDeleted",
                            "type": "bool"
                        },
                        {
                            "internalType": "string",
                            "name": "text",
                            "type": "string"
                        }
                    ],
                    "internalType": "struct TwitterContract.Tweet[]",
                    "name": "",
                    "type": "tuple[]"
                }
            ],
            "stateMutability": "view",
            "type": "function"
        }
    ],
    "bytecode": "0x608060405234801561001057600080fd5b50611154806100206000396000f3fe608060405234801561001057600080fd5b506004361061004c5760003560e01c8063532561351461005157806359ee12bc1461006f578063aefedbc21461008b578063f0312a37146100a9575b600080fd5b6100596100c5565b6040516100669190610b4e565b60405180910390f35b61008960048036038101906100849190610cb9565b61039f565b005b6100936104ec565b6040516100a09190610b4e565b60405180910390f35b6100c360048036038101906100be9190610d5a565b610838565b005b60606000808054905067ffffffffffffffff8111156100e7576100e6610b8e565b5b60405190808252806020026020018201604052801561012057816020015b61010d6108e4565b8152602001906001900390816101055790505b5090506000805b6000805490508110156102e5576000818154811061014857610147610d9a565b5b906000526020600020906003020160010160149054906101000a900460ff166102d2576000818154811061017f5761017e610d9a565b5b9060005260206000209060030201604051806080016040529081600082015481526020016001820160009054906101000a900473ffffffffffffffffffffffffffffffffffffffff1673ffffffffffffffffffffffffffffffffffffffff1673ffffffffffffffffffffffffffffffffffffffff1681526020016001820160149054906101000a900460ff1615151515815260200160028201805461022390610df8565b80601f016020809104026020016040519081016040528092919081815260200182805461024f90610df8565b801561029c5780601f106102715761010080835404028352916020019161029c565b820191906000526020600020905b81548152906001019060200180831161027f57829003601f168201915b5050505050815250508383815181106102b8576102b7610d9a565b5b602002602001018190525081806102ce90610e58565b9250505b80806102dd90610e58565b915050610127565b5060008167ffffffffffffffff81111561030257610301610b8e565b5b60405190808252806020026020018201604052801561033b57816020015b6103286108e4565b8152602001906001900390816103205790505b50905060005b828110156103955783818151811061035c5761035b610d9a565b5b602002602001015182828151811061037757610376610d9a565b5b6020026020010181905250808061038d90610e58565b915050610341565b5080935050505090565b600080805490509050600060405180608001604052808381526020013373ffffffffffffffffffffffffffffffffffffffff1681526020016000151581526020018481525090806001815401808255809150506001900390600052602060002090600302016000909190919091506000820151816000015560208201518160010160006101000a81548173ffffffffffffffffffffffffffffffffffffffff021916908373ffffffffffffffffffffffffffffffffffffffff16021790555060408201518160010160146101000a81548160ff0219169083151502179055506060820151816002019081610493919061104c565b505050336001600083815260200190815260200160002060006101000a81548173ffffffffffffffffffffffffffffffffffffffff021916908373ffffffffffffffffffffffffffffffffffffffff1602179055505050565b60606000808054905067ffffffffffffffff81111561050e5761050d610b8e565b5b60405190808252806020026020018201604052801561054757816020015b6105346108e4565b81526020019060019003908161052c5790505b5090506000805b60008054905081101561077e573373ffffffffffffffffffffffffffffffffffffffff166001600083815260200190815260200160002060009054906101000a900473ffffffffffffffffffffffffffffffffffffffff1673ffffffffffffffffffffffffffffffffffffffff161480156105ff575060001515600082815481106105dc576105db610d9a565b5b906000526020600020906003020160010160149054906101000a900460ff161515145b1561076b576000818154811061061857610617610d9a565b5b9060005260206000209060030201604051806080016040529081600082015481526020016001820160009054906101000a900473ffffffffffffffffffffffffffffffffffffffff1673ffffffffffffffffffffffffffffffffffffffff1673ffffffffffffffffffffffffffffffffffffffff1681526020016001820160149054906101000a900460ff161515151581526020016002820180546106bc90610df8565b80601f01602080910402602001604051908101604052809291908181526020018280546106e890610df8565b80156107355780601f1061070a57610100808354040283529160200191610735565b820191906000526020600020905b81548152906001019060200180831161071857829003601f168201915b50505050508152505083838151811061075157610750610d9a565b5b6020026020010181905250818061076790610e58565b9250505b808061077690610e58565b91505061054e565b5060008167ffffffffffffffff81111561079b5761079a610b8e565b5b6040519080825280602002602001820160405280156107d457816020015b6107c16108e4565b8152602001906001900390816107b95790505b50905060005b8281101561082e578381815181106107f5576107f4610d9a565b5b60200260200101518282815181106108105761080f610d9a565b5b6020026020010181905250808061082690610e58565b9150506107da565b5080935050505090565b3373ffffffffffffffffffffffffffffffffffffffff166001600084815260200190815260200160002060009054906101000a900473ffffffffffffffffffffffffffffffffffffffff1673ffffffffffffffffffffffffffffffffffffffff16146108a357600080fd5b80600083815481106108b8576108b7610d9a565b5b906000526020600020906003020160010160146101000a81548160ff0219169083151502179055505050565b604051806080016040528060008152602001600073ffffffffffffffffffffffffffffffffffffffff168152602001600015158152602001606081525090565b600081519050919050565b600082825260208201905092915050565b6000819050602082019050919050565b6000819050919050565b61096381610950565b82525050565b600073ffffffffffffffffffffffffffffffffffffffff82169050919050565b600061099482610969565b9050919050565b6109a481610989565b82525050565b60008115159050919050565b6109bf816109aa565b82525050565b600081519050919050565b600082825260208201905092915050565b60005b838110156109ff5780820151818401526020810190506109e4565b60008484015250505050565b6000601f19601f8301169050919050565b6000610a27826109c5565b610a3181856109d0565b9350610a418185602086016109e1565b610a4a81610a0b565b840191505092915050565b6000608083016000830151610a6d600086018261095a565b506020830151610a80602086018261099b565b506040830151610a9360408601826109b6565b5060608301518482036060860152610aab8282610a1c565b9150508091505092915050565b6000610ac48383610a55565b905092915050565b6000602082019050919050565b6000610ae482610924565b610aee818561092f565b935083602082028501610b0085610940565b8060005b85811015610b3c5784840389528151610b1d8582610ab8565b9450610b2883610acc565b925060208a01995050600181019050610b04565b50829750879550505050505092915050565b60006020820190508181036000830152610b688184610ad9565b905092915050565b6000604051905090565b600080fd5b600080fd5b600080fd5b600080fd5b7f4e487b7100000000000000000000000000000000000000000000000000000000600052604160045260246000fd5b610bc682610a0b565b810181811067ffffffffffffffff82111715610be557610be4610b8e565b5b80604052505050565b6000610bf8610b70565b9050610c048282610bbd565b919050565b600067ffffffffffffffff821115610c2457610c23610b8e565b5b610c2d82610a0b565b9050602081019050919050565b82818337600083830152505050565b6000610c5c610c5784610c09565b610bee565b905082815260208101848484011115610c7857610c77610b89565b5b610c83848285610c3a565b509392505050565b600082601f830112610ca057610c9f610b84565b5b8135610cb0848260208601610c49565b91505092915050565b600060208284031215610ccf57610cce610b7a565b5b600082013567ffffffffffffffff811115610ced57610cec610b7f565b5b610cf984828501610c8b565b91505092915050565b610d0b81610950565b8114610d1657600080fd5b50565b600081359050610d2881610d02565b92915050565b610d37816109aa565b8114610d4257600080fd5b50565b600081359050610d5481610d2e565b92915050565b60008060408385031215610d7157610d70610b7a565b5b6000610d7f85828601610d19565b9250506020610d9085828601610d45565b9150509250929050565b7f4e487b7100000000000000000000000000000000000000000000000000000000600052603260045260246000fd5b7f4e487b7100000000000000000000000000000000000000000000000000000000600052602260045260246000fd5b60006002820490506001821680610e1057607f821691505b602082108103610e2357610e22610dc9565b5b50919050565b7f4e487b7100000000000000000000000000000000000000000000000000000000600052601160045260246000fd5b6000610e6382610950565b91507fffffffffffffffffffffffffffffffffffffffffffffffffffffffffffffffff8203610e9557610e94610e29565b5b600182019050919050565b60008190508160005260206000209050919050565b60006020601f8301049050919050565b600082821b905092915050565b600060088302610f027fffffffffffffffffffffffffffffffffffffffffffffffffffffffffffffffff82610ec5565b610f0c8683610ec5565b95508019841693508086168417925050509392505050565b6000819050919050565b6000610f49610f44610f3f84610950565b610f24565b610950565b9050919050565b6000819050919050565b610f6383610f2e565b610f77610f6f82610f50565b848454610ed2565b825550505050565b600090565b610f8c610f7f565b610f97818484610f5a565b505050565b5b81811015610fbb57610fb0600082610f84565b600181019050610f9d565b5050565b601f82111561100057610fd181610ea0565b610fda84610eb5565b81016020851015610fe9578190505b610ffd610ff585610eb5565b830182610f9c565b50505b505050565b600082821c905092915050565b600061102360001984600802611005565b1980831691505092915050565b600061103c8383611012565b9150826002028217905092915050565b611055826109c5565b67ffffffffffffffff81111561106e5761106d610b8e565b5b6110788254610df8565b611083828285610fbf565b600060209050601f8311600181146110b657600084156110a4578287015190505b6110ae8582611030565b865550611116565b601f1984166110c486610ea0565b60005b828110156110ec578489015182556001820191506020850194506020810190506110c7565b868310156111095784890151611105601f891682611012565b8355505b6001600288020188555050505b50505050505056fea26469706673582212206e90f12c29462bd7ba25995d92b12185e364d9beba871736620872155db5c0b364736f6c63430008110033",
    "linkReferences": {},
    "deployedLinkReferences": {}
}